:020000040800F2
:1000000000000820B5200008611F0008631F0008D9
:10001000651F0008671F0008691F00080000000036
:100020000000000000000000000000006B1F00083E
:100030006D1F0008000000006F1F0008711F0008FE
:1000400005210008052100080521000805210008F8
:1000500005210008052100080521000805210008E8
:1000600005210008052100080521000805210008D8
:1000700005210008052100080521000805210008C8
:1000800005210008052100080521000805210008B8
:1000900005210008052100080521000805210008A8
:1000A0000521000805210008052100080521000898
:1000B0000521000805210008052100080521000888
:1000C0000521000805210008052100080521000878
:1000D000052100080521000805210008811F0008EE
:1000E0000521000805210008052100080521000858
:1000F0000521000805210008052100080521000848
:100100000521000805210008052100080521000837
:100110000521000805210008052100080521000827
:100120000521000805210008052100080521000817
:100130000521000805210008052100080521000807
:1001400005210008052100080521000805210008F7
:1001500005210008052100080521000805210008E7
:1001600005210008052100080521000805210008D7
:1001700005210008052100080521000800000000F5
:1001800005210008052100080521000805210008B7
:1001900005210008052100080521000805210008A7
:1001A0000521000805210008052100080521000897
:1001B0000521000805210008052100080521000887
:1001C00005210008052100080000000005210008A5
:1001D0000521000805210008052100080521000867
:1001E0000521000805210008052100080521000857
:0801F0000521000805210008AB
:1002000010B5054C237833B9044B13B10448AFF350
:1002100000800123237010BD70000020000000004A
:10022000BC2F000808B5034B1BB103490348AFF3CB
:10023000008008BD0000000074000020BC2F0008F2
:1002400001F0FF01102A2BDB10F0070F08D010F887
:10025000013B013A8B422DD010F0070F42B3F6D18B
:10026000F0B441EA012141EA014122F007047FF0A4
:1002700000070023F0E80256083C85EA010586EAFB
:10028000010685FA47F5A3FA87F586FA47F6A5FA37
:1002900087F68EB9EED1F0BC01F0FF0102F0070243
:1002A00032B110F8013B013A83EA010313B1F8D1EE
:1002B0000020704701387047002D06BF35460338CF
:1002C000073815F0010F07D1013015F4807F02BF08
:1002D000013015F4C03F0130F0BC0138704700BF59
:1002E00053B94AB9002908BF00281CBF4FF0FF319D
:1002F0004FF0FF3000F07AB9ADF1080C6DE904CE93
:1003000000F006F8DDF804E0DDE9022304B07047F0
:100310002DE9F0478C460D460446089E002B51D12E
:100320008A4217466DD9B2FA82FEBEF1000F0BD099
:10033000CEF1200C01FA0EF520FA0CFC02FA0EF7B1
:100340004CEA050C00FA0EF44FEA174A250CBCFBE8
:10035000FAF81FFA87F90AFB18CC45EA0C4508FBA6
:1003600009F3AB420AD9ED1908F1FF3280F023817D
:10037000AB4240F22081A8F102083D44ED1AA4B23C
:10038000B5FBFAF00AFB105544EA054400FB09F9F5
:10039000A14509D9E41900F1FF3380F00A81A14594
:1003A00040F2078102383C44A4EB090440EA0840CB
:1003B0000021002E61D024FA0EF400233460736013
:1003C000BDE8F0878B4207D9002E54D0002186E883
:1003D00021000846BDE8F087B3FA83F1002940F018
:1003E0008E80AB4202D3824200F2FA80841A65EB1F
:1003F00003050120AC46002E3FD086E81010BDE872
:10040000F08712B90127B7FBF2F7B7FA87FEBEF102
:10041000000F34D1EB1B3A0C1FFA87FC0121B3FB10
:10042000F2F8250C02FB183345EA03450CFB08F3F0
:10043000AB4207D9ED1908F1FF3002D2AB4200F20E
:10044000D1808046ED1AA3B2B5FBF2F002FB105545
:1004500043EA05440CFB00FCA44507D9E41900F16C
:10046000FF3302D2A44500F2B8801846A4EB0C0476
:1004700040EA08409DE731463046BDE8F087CEF1BE
:10048000200405FA0EF307FA0EF720FA04F83A0CE6
:1004900025FA04F448EA0308B4FBF2F14FEA1845E0
:1004A00002FB11441FFA87FC45EA044501FB0CF3EB
:1004B000AB4200FA0EF409D9ED1901F1FF3080F0DA
:1004C0008A80AB4240F2878002393D44EB1A1FFA22
:1004D00088F5B3FBF2F002FB103345EA034500FB5D
:1004E0000CF3AB4207D9ED1900F1FF386FD2AB42E4
:1004F0006DD902383D44EB1A40EA01418FE7C1F162
:10050000200722FA07F88B4005FA01F448EA0303B2
:1005100020FA07FE4FEA134CFD404EEA040EB5FBED
:10052000FCF94FEA1E440CFB19551FFA83F844EA04
:10053000054509FB08F4AC4202FA01F200FA01FA9F
:1005400008D9ED1809F1FF3043D2AC4241D9A9F1E5
:1005500002091D442D1B1FFA8EFEB5FBFCF00CFB9F
:1005600010554EEA054400FB08F8A04507D9E418E9
:1005700000F1FF3529D2A04527D902381C4440EAB2
:100580000940A4EB0804A0FB02894C45C6464D4631
:1005900015D312D056B1BAEB0E0364EB050404FA7E
:1005A00007F7CB401F43CC40376074600021BDE8A3
:1005B000F0871846F8E69046E0E6C245EAD2B8EB86
:1005C000020E69EB03050138E4E72846D7E7404609
:1005D00091E78146BEE7014678E702383C4445E7AB
:1005E000084608E7A8F102083D442BE7704700BF22
:1005F00038B50E4B05460E4A18784FF47A73B3FBA4
:10060000F0F31068B0FBF3F000F09CF8044658B922
:100610000F2D09D8024629464FF0FF3000F04EF862
:10062000044B20461D6038BD012038BD000000206D
:10063000080000200400002008B5032000F02CF87A
:100640000020FFF7D5FF01F045FC002008BD0000A9
:10065000034A044B11681B780B441360704700BFBA
:100660009C00002000000020014B1868704700BF6C
:100670009C00002038B50446FFF7F6FF0546631CD2
:100680001EBF044B1B78E418FFF7EEFF401B8442AB
:10069000FAD838BD00000020074A0002D36800F4F1
:1006A000E06023F4E0631B041B0C43F0BF6343F4DE
:1006B00000330343D360704700ED00E0194B30B5C1
:1006C000DC68C4F30224C4F10703251D042B28BFF2
:1006D0000423062D4FF001058CBF033C002405FACE
:1006E00003F3002803F1FF3301EA030101FA04F1E7
:1006F00005FA04F404F1FF3402EA040242EA0102BA
:100700004FEA021205DA00F00F00D2B2064B1A547B
:1007100030BD00F16040D2B200F5614080F80023A6
:1007200030BD00BF00ED00E014ED00E04209012300
:1007300000F01F0003FA00F0014B43F8220070475D
:1007400000E100E00138B0F1807F0AD2064BF021D1
:10075000064A5860002082F82310072298601A6029
:1007600070470120704700BF10E000E000ED00E09E
:10077000044B04281A680CBF42F0040222F0040261
:100780001A60704710E000E0704708B5FFF7FCFF03
:1007900008BD90F83530022B03D08023436501203B
:1007A00070470268052380F835300020136823F075
:1007B00001031360704700002DE9F04F0B6885B00E
:1007C000DFF8C081019300236C4ADFF8BC914FF041
:1007D000010E019C0EFA03FE0EEA0406B64540F037
:1007E000B3804C6824F01007022F16D14FEAD30AC9
:1007F00003F0070B4FF00F0C00EB8A0A4FEA8B0B4C
:10080000DAF820500CFA0BFC25EA0C0C0D6905FAFD
:100810000BF545EA0C05CAF820504FEA430A0325B8
:10082000D0F800B004F0030C05FA0AF5013F0CFA09
:100830000AFCED43012F0BEA050B4CEA0B0CC0F848
:1008400000C011D8876807EA050BCF6807FA0AFCD1
:100850004CEA0B078760476827EA0E0EC4F30017BF
:100860009F4047EA0E074760C7683D408F6807FA18
:100870000AF73D43C560E50066D5D8F8445023F03B
:10088000030703F0030E4FF00F0C45F4804507F10A
:1008900080474FEA8E0EC8F8445007F59C37D8F8C9
:1008A000445005F480450395039D0CFA0EF5D7F8E6
:1008B00008A02AEA050C324DA8424CD005F5806507
:1008C000A8424AD005F58065A84248D005F5806564
:1008D000A84246D005F58065A84244D0484544D09A
:1008E00005F50065A84242D005F58065A84240D0D4
:1008F00005F58065A8423ED005F58065A84214BF85
:100900000A25092505FA0EF514F4803F45EA0C0581
:10091000BD606FEA060715680CBF3D40354314F40F
:10092000003F156055680CBF3D40354314F4801FEF
:10093000556095680CBF3D403543A4029560D5686D
:1009400054BF3D403543D5600133102B7FF43FAF9A
:1009500005B0BDE8F08F0025D4E70125D2E70225D8
:10096000D0E70325CEE70425CCE70525CAE7062511
:10097000C8E70725C6E70825C4E700BF003C0140DB
:100980000000024000380240001402400AB18161B8
:1009900070470904FBE74369594041617047000013
:1009A000194B37B51A6C194C42F080521A641B6C03
:1009B00003F080530193019B236843F48033236049
:1009C000FFF752FE05466368DA030CD5236843F44B
:1009D00000332360FFF748FE0C4C054663689B0319
:1009E0000AD5002006E0FFF73FFE401BB0F57A7FF6
:1009F000E9D9032003B030BDFFF736FE401BB0F548
:100A00007A7FEBD9F5E700BF003802400070004064
:100A10002DE9F341044618B9012002B0BDE8F08188
:100A20000368D80710D4236899075ED42368190790
:100A300000F1A38023685A0700F1C480A269002A4C
:100A400040F02E810020E8E7934B9A6802F00C02F8
:100A5000042A07D09A6802F00C02082A0AD15B68BF
:100A60005A0207D58C4B1B689B03DCD56368002BAF
:100A7000D9D1D1E76368884DB3F5803F11D12B6898
:100A800043F480332B60FFF7EFFD834D06462B6860
:100A90009F03C8D4FFF7E8FD801B6428F7D9032023
:100AA000BBE79BB92B6823F480332B602B6823F4BE
:100AB00080232B60FFF7D8FD06462B689803B2D53C
:100AC000FFF7D2FD801B6428F7D9E8E7B3F5A02F24
:100AD0002B6803D143F480232B60D0E723F48033C9
:100AE0002B602B6823F48023CCE76B4B9A6812F0C1
:100AF0000C0F07D09A6802F00C02082A11D15B682B
:100B000059020ED4644B1A68920702D5E268012A92
:100B100082D11A68216922F0F80242EAC1021A6001
:100B200084E7E3685C4DBBB12B6843F001032B60A5
:100B3000FFF79AFD06462B689F0707D52B682269A9
:100B400023F0F80343EAC2032B606FE7FFF78CFD45
:100B5000801B0228EFD9A2E72B6823F001032B604A
:100B6000FFF782FD06462B6898077FF55FAFFFF71A
:100B70007BFD801B0228F6D991E76369464D83B15E
:100B80006B6F43F001036B67FFF76EFD06466B6FFB
:100B90009B073FF54FAFFFF767FD801B0228F6D993
:100BA0007DE76B6F23F001036B67FFF75DFD064682
:100BB0006B6F9F077FF53EAFFFF756FD801B022846
:100BC000F6D96CE7344B1A6CD00027D41A6C012686
:100BD00042F080521A641B6C03F080530193019B16
:100BE0002E4D2B68D9051BD5A3682B4D012B27D182
:100BF0002B6F43F001032B6741F28835FFF734FD7B
:100C0000254F80463B6F9B073FD5002E3FF416AF24
:100C1000214A136C23F0805313640FE70026DFE7AB
:100C20002B6843F480732B60FFF71EFD07462B688B
:100C3000DA05D9D4FFF718FDC01B6428F7D92EE7D1
:100C4000ABB92B6F41F2883823F001032B672B6F70
:100C500023F004032B67FFF707FD07462B6F980768
:100C6000D3D5FFF701FDC01B4045F7D917E7052B8A
:100C70002B6F03D143F004032B67B9E723F0010383
:100C80002B672B6F23F00403B5E7FFF7EDFCA0EB18
:100C90000800A842B6D902E70038024000700040C0
:100CA000244DAB6803F00C03082B3FF4B5AE2B6862
:100CB000022A23F080732B602FD1FFF7D5FC064664
:100CC0002B68990123D4226AE3691343626A43EAD9
:100CD0008213E26A43EA0263226B43EA0273A26A66
:100CE000144C5208013A43EA02436B602B6843F00C
:100CF00080732B60FFF7B8FC054623689A013FF527
:100D0000A1AEFFF7B1FC401B0228F6D9C7E6FFF7FA
:100D1000ABFC801B0228D3D9C1E6FFF7A5FC044633
:100D20002B689B017FF58EAEFFF79EFC001B02280F
:100D3000F6D9B4E600380240134908B58B6803F0D1
:100D40000C03042B03D0082B03D0104808BD104817
:100D500008BD4A684B68496802F03F0213F48003FB
:100D6000C1F388111ABF0A4800230848A1FB0001FB
:100D7000FFF7B6FA044B5B68C3F3014301335B0032
:100D8000B0FBF3F008BD00BF003802400024F400BF
:100D900000127A002DE9F0410D46044610B90120F9
:100DA000BDE8F081464A136803F00F038B4228D355
:100DB00021688F0730D4C80743D4414A136803F031
:100DC0000F039D4267D32268510770D4130707D5DC
:100DD0003C4A2169936823F4604343EAC10393606A
:100DE000FFF7AAFF374B384A9B68C3F30313D35C62
:100DF000D840364B18600020FFF7FAFB0020BDE812
:100E0000F081136823F00F030B431360136803F0A2
:100E10000F039942C3D1CBE711F0040F294B03D044
:100E20009A6842F4E0529A600E0703D59A6842F439
:100E300060429A609A68A06822F0F00202439A60C9
:100E4000B9E761681F4B01291A681CD112F4003FF1
:100E5000A5D09A6841F288381A4E22F003020A435C
:100E60009A60FFF701FC0746B368626803F00C0361
:100E7000B3EB820FA1D0FFF7F7FBC01B4045F3D9BE
:100E80000320BDE8F081022902D112F0007FDFE7E4
:100E900012F0020FDCE7136823F00F032B431360FB
:100EA000136803F00F039D427FF479AF8BE7054988
:100EB000E0688B6823F4E05303438B6086E700BF50
:100EC000003C024000380240F22F000808000020D9
:100ED000014B1868704700BF08000020044B054A0A
:100EE0009B68C3F38223D35C034A1068D8407047E1
:100EF000003802400230000808000020044B054A78
:100F00009B68C3F34233D35C034A1068D8407047F0
:100F10000038024002300008080000202DE9F743A5
:100F20000268044612F001060BD0BA4B996821F40E
:100F300000019960466B99683143B6FA86F67609E6
:100F4000996012F4002512D0B249E56BD1F88C30CB
:100F5000B5F5801F23F4401308BF012643EA0503BB
:100F600016BFB5FA85F500256D09C1F88C30D7029A
:100F700010D5A848216CD0F88C30B1F5800F23F43F
:100F8000400343EA0103C0F88C3000F0A981002936
:100F900008BF012512F0807F18BF0126900631D5C9
:100FA0009C4B9D4F1A6C42F080521A641B6C03F0EC
:100FB00080530193019B3B6843F480733B60FFF7D0
:100FC00053FB80463B68D90540F18C81914F3B6FC4
:100FD00013F4407340F09181236B03F44072B2F537
:100FE000407F8C4A40F0AF81916823F0704021F43B
:100FF000F81120F4407001439160C3F30B03116FAB
:101000000B4313672368DF060CD5824AD2F88C1095
:1010100021F08071C2F88C10D2F88C10A06B0143C3
:10102000C2F88C10580408D57A49606ED1F8902027
:1010300022F440320243C1F89020190408D57549C2
:10104000A06ED1F8902022F440220243C1F89020F3
:10105000DA0308D56F49E06ED1F8902022F44012EF
:101060000243C1F890209F0308D56A49206FD1F848
:10107000902022F440020243C1F89020580608D57F
:101080006449606CD1F8902022F003020243C1F859
:101090009020190608D55F49A06CD1F8902022F065
:1010A0000C020243C1F89020DA0508D55949E06CDA
:1010B000D1F8902022F030020243C1F890209F0521
:1010C00008D55449206DD1F8902022F0C002024387
:1010D000C1F89020580508D54E49606DD1F8902090
:1010E00022F440720243C1F89020190508D54949FD
:1010F000A06DD1F8902022F440620243C1F8902004
:10110000DA0408D54349E06DD1F8902022F440522A
:101110000243C1F890209F0408D53E49206ED1F8C3
:10112000902022F440420243C1F89020580208D592
:101130003849A06FD1F8902022F080620243C1F8B4
:10114000902099020CD53348E16FD0F89020B1F18E
:10115000006F22F0006208BF01250A43C0F890200A
:1011600013F0080F18BF01255A0308D52949606FED
:10117000D1F8902022F040720243C1F890201F0263
:1011800009D52449D4F88000D1F8902022F080526B
:101190000243C1F89020580109D51E49D4F88400B3
:1011A000D1F8902022F000520243C1F8902019019A
:1011B00009D51849D4F88800D1F88C2022F00072A3
:1011C0000243C1F88C20DA0009D51249D4F88C000A
:1011D000D1F88C2022F080620243C1F88C20012ECD
:1011E00000F0B580B3F1007F00F0B180012D75D122
:1011F000084D2B6823F080532B60FFF735FA064625
:101200002B689F0000F1278121680E0306D5E36B50
:1012100043B103E00038024000700040CD021DD50C
:10122000236CDBB9934AD2F88830D2F8880003F4F3
:10123000403300F0E0400343606943EA8013A06953
:1012400043EA0063C2F88830D2F88C30A06A23F4F5
:10125000F853013843EA0023C2F88C30880215D5D0
:10126000E36FB3F1006F11D1824AD2F88830D2F81F
:10127000880003F0706300F0E0400343606943EAD4
:101280008013206A43EA0043C2F888300A0719D560
:101290007849D1F88820D1F8883002F0706203F4E0
:1012A00040331343626943EA8213E26943EA0273FB
:1012B000C1F88830D1F88C30E26A23F4403313430C
:1012C000C1F88C306B4C236843F080532360FFF7E8
:1012D000CBF9054623689B0040F1C480002009E05B
:1012E000012657E6FFF7C0F9A0EB080064287FF657
:1012F00069AE032003B0BDE8F083226B02F44072B4
:1013000093423FF469AE3B6F3A6F23F4407342F46B
:1013100080323A673A6F22F480323A673B673B6F1C
:10132000DA077FF559AEFFF79FF941F28839804619
:101330003B6F9B073FF550AEFFF796F9A0EB080017
:101340004845F5D9D5E7916821F4F81154E6494E9E
:10135000336823F080633360FFF786F9074633680C
:101360001B0172D42268D70712D5636B83B9D6F8F4
:101370008430D6F8841003F4403301F070610B43DD
:10138000616843EA8113A16843EA0173C6F88430B7
:10139000160303D5E36BB3F5801F05D0D0021ED52D
:1013A000236CB3F5800F1AD13249D1F88430D1F8CB
:1013B000840003F4403300F0E0400343606843EAF4
:1013C0008013E06843EA0063C1F88430D1F88C00F0
:1013D000636A20F01F00013B0343C1F88C30D10148
:1013E00011D52449D1F88430D1F8840003F070631A
:1013F00000F0E0400343606843EA8013206943EA59
:101400000043C1F8843092010DD5236962681B0442
:1014100043EA8213E26843EA0263A26843EA027382
:10142000144AC2F88430134E336843F0806333604B
:10143000FFF71AF9074633681B013FF5D7AEFFF7F0
:1014400013F9C01B6428F6D953E7FFF70DF9C01B49
:10145000642884D94DE7FFF707F9801B64287FF6DD
:10146000CFAE46E7FFF700F9401B64287FF632AFA6
:101470003FE700BF0038024003681A6822F4907208
:101480001A609A6822F001029A60202380F86A307C
:10149000704790F86A30202B3DD1002939D0002ABE
:1014A00037D090F86830012B35D001234165A0F882
:1014B000582080F868308368A0F85A20B3F5805F20
:1014C00019D10369ABB940F2FF13A0F85C300023D7
:1014D0002222C36680F86A20026880F868301846C5
:1014E000916841F001019160116841F490711160BF
:1014F0007047FF23E9E723B90369002BF9D07F2365
:10150000E3E7B3F1805FE2D10369002BF7D03F231B
:10151000DBE701207047022070472DE9F041069D6E
:1015200004460F46164698462168CA6937EA020300
:101530000CBF01220022B24202D00020BDE8F0819F
:101540006B1CF2D09DB9236803201A6822F4D07274
:101550001A609A6822F001029A60202384F86930A8
:1015600084F86A30002384F86830BDE8F081FFF722
:101570007BF8A0EB08008542D6D8E4E72DE9F341DB
:101580001F4690F8693004460D46202B90464CD1FA
:10159000002948D0002A46D090F86830012B44D06A
:1015A000012380F868300023C366212380F8693066
:1015B000FFF75AF80646A4F85080A4F85280B4F811
:1015C000522092B262B90097334640212046FFF77D
:1015D000A4FF98B9202384F8680084F869300EE0ED
:1015E000B4F85230002200978021013B20469BB284
:1015F000A4F852303346FFF790FF18B1032002B031
:10160000BDE8F081A3682268B3F5805F07D1236944
:101610002BB935F8023BC3F308039362CFE72B786D
:1016200001359362CBE70120E9E70220E7E7704745
:1016300090F86A300268222B10B52AD18368B0F87E
:101640005C10B3F5805F436D1DD10469DCB9526A4B
:10165000114023F8021B4365B0F85A40013CA4B284
:10166000A0F85A406CB903681A6822F490721A60A4
:101670009A6822F001029A60202380F86A3000F014
:101680000DFC002010BD526A5C1C114044651970AD
:10169000E2E79369022043F00803936110BD7047AD
:1016A0000368DA69196870B5160704469D6807D1A2
:1016B000950663D58E0661D5BDE87040FFF7B8BFCB
:1016C00015F0010002D111F4907F57D0D50707D54E
:1016D000CE0505D501251D62E56E45F00105E566DF
:1016E000950706D528B102251D62E56E45F0040573
:1016F000E566560706D528B104251D62E56E45F05E
:101700000205E566150707D58E0600D420B108202E
:101710001862E36E0343E366E36E002B6AD095061E
:1017200004D5880602D52046FFF782FFE36E2046E7
:10173000190704D423689D6815F040051AD0FFF7F7
:101740009BFE23689A68520610D59A68606E22F054
:1017500040029A6050B1284B0365FFF71AF8002841
:1017600048D0606EBDE87040036D18472046FFF713
:1017700096FF70BDFFF793FFE56670BD16062BD58B
:101780000D0629D594F86920212A33D1B4F85220C6
:1017900092B242B91A6822F080021A601A6842F0C6
:1017A00040021A6070BDA268B2F5805FE26C0ED193
:1017B000216961B932F8021BC1F308019962E26440
:1017C000B4F85230013B9BB2A4F8523070BD511CAA
:1017D000E16412789A62F3E750060BD54A0609D500
:1017E0001A68204622F040021A60202384F86930EB
:1017F000FFF71DFF70BD00BFFD17000808B5806B27
:101800000023A0F85A30A0F85230FFF748FF08BD77
:1018100038B504460568C3692169A26828680A4387
:1018200061690A4393491A430140206A0A43E16807
:101830002A606A6822F440520A436A60A269A96871
:10184000024321F430610A43AA608B4A954219D1C0
:1018500002F594328949D2F8902002F00302B3F5E0
:10186000004F8A5C40F0B380082A00F2AD80DFE8C8
:1018700012F026007B00E900AB00F500AB00AB00E6
:10188000AB00FB007E4A954207D102F5FA327D4952
:10189000D2F8902002F00C02E1E77B4A95422BD16E
:1018A00002F5F832D2F8902002F03002102A00F04F
:1018B000D28016D8DAB9B3F5004F40F09F80FFF719
:1018C0000DFB61684A0802EB4003B3FBF1F39BB2E6
:1018D000002023F00F02C3F3420321681343CB60BF
:1018E00038BD202A00F0AB80302A00F0BA80B3F572
:1018F000004F69D0012038BD644A95420ED102F5EF
:10190000F632D2F8902002F0C002402A00F0A38004
:10191000D0D9802A00F09380C02AE6E75C4A95423D
:1019200010D102F5F432D2F8902002F44072B2F5F0
:10193000807F00F09080BDD9B2F5007F7FD0B2F5F6
:10194000407FD2E7534A954217D102F59232D2F83E
:10195000902002F44062B2F5806F7CD007D8002A54
:10196000C5D1B3F5004F54D1FFF7C8FAA9E7B2F5D6
:10197000006F64D0B2F5406FB7E7474A95420FD188
:1019800002F5E032D2F8902002F44052B2F5805FC6
:1019900061D08FD9B2F5005F51D0B2F5405FA4E7B6
:1019A0003E4A9542A3D102F5DE32D2F8902002F4ED
:1019B0004042B2F5804F4ED07FF67CAFB2F5004F7B
:1019C0003DD0B2F5404F90E70120002381E7082A7F
:1019D00090D801A353F822F0FD190008131A00084B
:1019E000191A0008F51800082F1A0008F518000841
:1019F000F5180008F5180008351A0008FFF76EFA08
:101A0000636800EB5300B0FBF3F080B2E8600020A5
:101A100038BDFFF773FAF3E76268530803F5740300
:101A200003F51053B3FBF2F39BB2EB60EFE7FFF764
:101A300083F9E5E76268530803F50043F2E7B3F57D
:101A4000004FE9D16068430803F1F47303F5904354
:101A5000B3FBF0F33BE7B3F5004FE8D1FFF76CF9C8
:101A60002FE7B3F5004FE5D16068430803F58033F5
:101A7000EEE700BFF369FFEF00100140D42F00082C
:101A800000440040D82F000800480040004C0040AF
:101A9000005000400014014000780040007C0040ED
:101AA000436ADA0710B506D50168846A4A6822F4E9
:101AB000003222434A609C0706D50168C46A4A681E
:101AC00022F4803222434A60590706D50168046B2C
:101AD0004A6822F4802222434A601A0706D5016828
:101AE000446B4A6822F4004222434A60DC0606D571
:101AF0000168846B8A6822F4805222438A609906C6
:101B000006D50168C46B8A6822F4005222438A60B9
:101B10005A0610D50168046C4A68B4F5801F22F497
:101B2000801242EA04024A6005D14A68446C22F4F9
:101B3000C00222434A601B0606D50268816C5368C6
:101B400023F400230B43536010BD37B50025044632
:101B5000C566FEF789FD226803461268120709D49C
:101B60002023002084F8693084F8680084F86A3003
:101B700003B030BD6FF07E424FF40011204600925A
:101B80002A46FFF7CAFC0028EAD00320F0E710B588
:101B9000044660B390F8693003F0FF021BB980F887
:101BA000682000F03BFA22682423204684F869303C
:101BB000136823F001031360FFF72AFE012816D0F3
:101BC000636A13B12046FFF76BFF236820465A680B
:101BD00022F490425A609A6822F02A029A601A68A7
:101BE00042F00102BDE810401A60FFF7AEBF0120CD
:101BF00010BD00005F4B4FF481411A6B42F00402AC
:101C00002DE9F04F1A638DB01A6B0024DFF870A134
:101C10004FF4005B02F00402574F5046DFF8649126
:101C200001920226019A03251A6B4FF00B0842F02D
:101C300080021A631A6B02F080020292029A1A6BF7
:101C400042F001021A631A6B02F001020392039A36
:101C50001A6B42F002021A631A6B02F0020204923B
:101C6000049A1A6B42F008021A631A6B02F0080217
:101C70000592059A1A6B42F040021A6300221B6B10
:101C800003F040030693069BFEF780FE00223846D1
:101C90004021FEF77BFE394B07A94846CDF81CB022
:101CA00008930994FEF788FD322307A94846A9F551
:101CB00000690793089609940A95CDF82C80FEF7E1
:101CC0007BFD862307A948460896079309940A9541
:101CD000CDF82C80FEF770FD07A95046CDF81CB05A
:101CE0004FF0010B089609940A95CDF82C80FEF769
:101CF00063FD4FF4814307A95046CDF820B0079308
:101D000009940A94FEF758FD402307A93846CDF8F8
:101D100020B0079309940A94FEF74EFD802307A98B
:101D20003846089407930994FEF746FD4FF4E853AC
:101D300007A94846089607930A2309940B930A9526
:101D4000FEF73AFD4FF4007307A94846089407933D
:101D50000994FEF731FD4FF4205307A93846089641
:101D6000079309940A95CDF82C80FEF725FD0DB058
:101D7000BDE8F08F0038024000180240000011104A
:101D800000040240000802402D4B1A6C42F08052C1
:101D900030B51A64B9B01B6C0224042507A803F0FF
:101DA00080530093009B274B1A6842F440421A600C
:101DB0001B680D9403F440430F9511940193019B0C
:101DC0000123129407934FF4A02308934FF4800348
:101DD0000E93D8231093FEF71BFE00B1FEE7FEF72B
:101DE000DFFD00B1FEE70F230490072102A8029354
:101DF0004FF4A053039405934FF480530693FEF7DA
:101E0000C9FF00B1FEE74FF48073279014A8149324
:101E1000FFF784F8044600B1FEE7FFF759F84FF4E6
:101E20007A73B0FBF3F0FEF78DFC2846FEF7A0FCBA
:101E3000224621464FF0FF30FEF740FC39B030BD5E
:101E4000003802400070004008B50F4CFEF7F4FB6C
:101E50000E4EFFF799FF0E4DFFF7CCFE00F0BCF8D9
:101E600001220C490C48FFF714FB237830468021EF
:101E700001332370FEF78FFD2178284600F068F9C2
:101E80006420FEF7F7FBF0E78C000020000402401E
:101E9000E52F0008A0000020A40000200A4B984273
:101EA00070B504460ED10125036808491D622A4613
:101EB000FFF7EFFA2A4620460A230449BDE870409E
:101EC000FFF75CBB70BD00BFA4000020A000002095
:101ED000FEE70000214B07B51A6C032042F0805248
:101EE0001A641A6C02F080520092009A5A6C42F402
:101EF00080425A645B6C03F480430193019BFEF7BC
:101F0000CBFB00226FF00B001146FEF7D7FB00223F
:101F10006FF00A001146FEF7D1FB00226FF00900B6
:101F20001146FEF7CBFB00226FF004001146FEF7CE
:101F3000C5FB00226FF003001146FEF7BFFB002235
:101F40006FF001001146FEF7B9FB00224FF0FF30A1
:101F50001146FEF7B3FB03B05DF804FB0038024006
:101F60007047FEE7FEE7FEE7FEE770477047704701
:101F700008B5FEF76DFBBDE80840FEF706BC0000A3
:101F80000148FFF78DBB00BFA40000200F490020CF
:101F9000D1F8883043F47003C1F888300C4B1A68CC
:101FA00042F001021A6098601A6822F0847222F4EA
:101FB00080321A60074A5A601A6822F480221A6036
:101FC000D8604FF000638B60704700BF00ED00E009
:101FD000003802401030002408B50D484FF4E13EAF
:101FE0000C4B0C2280E80840002342618360C360F0
:101FF00003618361C36103624362FFF7C8FD28B1D7
:1020000044210548BDE80840FFF762BF08BD00BF96
:10201000A4000020004800400A3000080268144B69
:102020009A4210B586B021D103F5F833002401A9F6
:1020300010481A6C42F480221A641B6C039403F457
:1020400080230093009B4FF440730193022302937B
:102050000323049307230593FEF7AEFB27202246B4
:102060002146FEF72BFB2720FEF760FB06B010BDD4
:1020700000480040000C024007B502A94FF6FF736C
:10208000012241F8040D0348FFF778FA019803B0E4
:102090005DF804FBA400002070B50E4615460C4602
:1020A000A31B9D4201DC284670BD14F8010BFFF70D
:1020B000E3FFF5E7DFF834D0002103E00C4B5B5879
:1020C000435004310B480C4B42189A42F6D30B4A4A
:1020D00002E0002342F8043B094B9A42F9D3FFF790
:1020E00055FF00F011F8FFF7AFFE70470000082021
:1020F000C4300008000000207000002070000020A4
:1021000018010020FEE7000070B50D4E0D4CA41B19
:10211000A4100025A54209D10B4E0C4C00F04EFF37
:10212000A41BA4100025A54205D170BD56F825308A
:1021300098470135EEE756F8253098470135F2E724
:10214000BC300008BC300008BC300008C0300008BB
:102150000FB40A4B13B51C6824B1A36913B9204608
:1021600000F04EF805AB049AA1680193204600F0F8
:1021700061F902B0BDE8104004B070470C000020C7
:10218000014900F0A9B800BF092D0008002310B5CF
:10219000044603604360836081814366C2810361BA
:1021A00043618361194608225C3000F0B3F8054BA7
:1021B0006362054BA362054BE362054B2462236314
:1021C00010BD00BFAD290008CF290008072A00086C
:1021D0002B2A000870B54A1E682555430E4605F1A6
:1021E000740100F09FF8044640B1002180E84200ED
:1021F0000C30A06005F1680200F08CF8204670BD3C
:10220000836910B5044633BB8364C3640365124B12
:10221000124A1B688262984204BF0123836100F066
:102220001FF86060204600F01BF8A060204600F018
:1022300017F80022E06004216068FFF7A7FF012281
:102240000921A068FFF7A2FF02221221E068FFF730
:102250009DFF0123A36110BD7C300008812100088F
:10226000F8B51C4B1E68B369074613B93046FFF733
:10227000C7FF4836B4687368013B03D5336833B190
:102280003668F7E7B4F90C506DB16834F4E704210F
:102290003846FFF79FFF30600028F1D10C233B60E8
:1022A00004462046F8BD4FF6FF73E3810123A38166
:1022B00065662560A560656025616561A561082288
:1022C000294604F15C0000F025F86563A563A56468
:1022D000E564E6E77C3000082DE9F843804689464E
:1022E00000F14804002614B93046BDE8F883A5681B
:1022F0006768013F01D52468F5E7AB89012B07D951
:10230000B5F90E30013303D029464046C84706438D
:102310006835EEE702440346934200D1704703F864
:10232000011BF9E770B5CD1C25F0030508350C2D10
:1023300038BF0C25002D064601DBA94203D90C232A
:102340003360002070BD00F07FFD234A14682146F1
:1023500091B9224C23681BB9304600F017FB20606E
:102360002946304600F012FB431C26D10C23336073
:10237000304600F06AFDE4E70B685B1B1AD40B2BB8
:102380000FD90B60CD50CC18304600F05EFD04F143
:102390000B00231D20F00700C31A1BD05A42E25045
:1023A00070BD8C420DBF63684B686360136018BFDB
:1023B0000C46E9E70C464968CAE7C41C24F003044C
:1023C000A04205D0211A304600F0E0FA0130CDD00D
:1023D0002560D9E770BD00BF900000209400002068
:1023E0009368013B002B10B4936009DA9469A3420F
:1023F00002DBCBB20A2B03D15DF8044B00F01ABB11
:102400001368581C10601970C8B25DF8044B70470F
:10241000F8B506460F461446D518AC4201D1002047
:1024200007E03A4614F8011B3046FFF7D9FF431C7A
:10243000F3D1F8BD2DE9F04F9DB00C46174603933C
:10244000064618B183690BB9FFF7DAFE7C4B9C4254
:1024500057D17468A38918075DD52369002B5AD01A
:102460000023099320238DF8293030238DF82A305A
:102470004FF0010BB846454615F8013B002B55D1EE
:10248000B8EB070A0BD053463A4621463046FFF7D1
:10249000BFFF013000F0C480099B5344099398F8B2
:1024A0000030002B00F0BC8000234FF0FF3204937B
:1024B0000793059206938DF853301A9305222978D5
:1024C0006048FDF7BDFE05F10108049B002831D1ED
:1024D000D90644BF20228DF853201A0744BF2B226F
:1024E0008DF853202A782A2A2CD0079A00210A2016
:1024F000A846013598F80030303B092B6DD971B3EF
:1025000026E0514B9C4201D1B468A3E74F4B9C425B
:1025100008BFF4689EE72146304600F0EFFA002835
:102520009ED04FF0FF301DB0BDE8F08F252BA7D017
:10253000A846A0E7434A801A0BFA00F0184304901B
:102540004546BBE7039A111D12680391002A01DB7F
:10255000079204E0524243F002030792049398F872
:1025600000302E2B10D198F801302A2B08F10101F0
:1025700037D1039B1A1D1B680392002BB8BF4FF085
:10258000FF3308F102080593314D98F8001003223B
:102590002846FDF755FE40B14023401B03FA00F0EA
:1025A000049B0343049308F1010898F8001029489C
:1025B0008DF82810062208F10107FDF741FE0028DA
:1025C00034D0254B03BB039B073323F007030833A9
:1025D0000393099B4B4409934CE700FB0232012112
:1025E00086E70023059318460A258846013198F8A6
:1025F0000020303A092A03D9002BC5D00590C3E743
:1026000005FB00200123F0E703AB00932246134BA8
:1026100004A93046AFF30080B0F1FF3F8146D8D126
:10262000A3895B063FF57DAF09987CE703AB009378
:1026300022460A4B04A9304600F088F8ECE700BFB8
:102640003C300008803000085C3000081C30000876
:10265000863000088A3000080000000011240008BD
:102660002DE9F04791461F468A680B69DDF8208006
:102670009342B8BF1346C9F8003091F8432006468C
:102680000C4612B10133C9F800302368990642BFE5
:10269000D9F800300233C9F80030256815F0060576
:1026A00007D104F1190AE368D9F800209B1A9D426A
:1026B00029DB94F843302268003318BF01239206C7
:1026C0002ED404F1430239463046C047013021D0B0
:1026D0002368E568D9F8002003F00603042B08BF3F
:1026E000AD1AA36822690CBF25EAE575002593425F
:1026F000C4BF9B1AED184FF000091A344D451BD189
:102700000020BDE8F0870123524639463046C047D5
:10271000013003D14FF0FF30BDE8F0870135C2E74B
:10272000E1185A1C302081F84300224494F84510E7
:1027300082F843100233C4E701232246394630466B
:10274000C0470130E6D009F10109D7E72DE9F04390
:1027500017460A7E85B06E2A984606460C460C9BA4
:1027600001F1430E00F0BC801AD8632A2ED00AD89B
:10277000002A00F0C880582A00F08A8004F142053F
:1027800084F842202AE0642A01D0692AF6D121681F
:102790001A6811F0800F23D0111D1960136827E00B
:1027A000732A00F0B48008D86F2A2AD0702AE5D1A5
:1027B0000A6842F020020A6003E0752A21D0782AD4
:1027C000DCD1782284F845206E4964E01A6801F172
:1027D0004205111D1960136884F842300123A3E0FB
:1027E00011F0400F02F104011960D7D0B2F90030A6
:1027F000002B03DA2D225B4284F8432062490A222F
:1028000017E02068196810F0800F03D0081D1860C9
:102810000B6806E010F0400F01F104001860F7D0DB
:102820000B8859496F2A14BF0A220822002084F815
:1028300043006568A560002DC0F29C80206820F0F0
:1028400004002060002B3FD1002D40F0958075469C
:10285000082A0BD12368DA0708D5236962689A42EF
:10286000DEBF302305F8013C05F1FF35AEEB050373
:102870002361CDF800803B4603AA21463046FFF78E
:10288000EFFE013055D14FF0FF3005B0BDE8F083C9
:1028900081F845203C492268186812F0800F00F149
:1028A00004051D6001D0036802E05506FBD50388CE
:1028B000D00744BF42F0200222601BB9226822F0F8
:1028C000200222601022B1E77546B3FBF2F002FB52
:1028D0001033CB5C05F8013D03460028F5D1B7E77E
:1028E00008681A68496910F0800F04D0101D18603C
:1028F0001368196007E010F0400F02F1040018603F
:102900001368F6D01980002323617546B1E71A6871
:10291000111D19601568626800212846FDF790FCBA
:1029200008B1401B606063682361002384F8433072
:102930009FE723692A4639463046C0470130A2D076
:1029400023689B0707D5002504F11909E368039A5A
:102950009B1A9D4205DBE068039B9842B8BF18466E
:1029600093E701234A4639463046C04701308AD0B2
:102970000135EBE7002BA7D10B7884F8423004F146
:10298000420565E7A23000089130000838B5064CD2
:10299000002305460846236000F002FB431C02D1D9
:1029A000236803B12B6038BD1401002010B50C461C
:1029B000B1F90E1000F098FA0028ABBF636DA3893F
:1029C0001B1823F48053ACBF6365A38110BD2DE9B0
:1029D000F0411F468B89DB0505460C46164605D59A
:1029E00002230022B1F90E1000F0B8F9A389B4F95E
:1029F0000E1023F48053A38132463B462846BDE89F
:102A0000F04100F069B810B50C46B1F90E1000F0B5
:102A1000A5F9431CA38915BF606523F4805343F4D3
:102A20008053A38118BFA38110BDB1F90E1000F02F
:102A3000D3B80000F8B50E461446054618B18369B0
:102A40000BB9FFF7DDFB214B9C422AD16C68A369CF
:102A5000A360A3891A072ED5236963B3236920686D
:102A6000C01A6369F6B29842374604DB214628460D
:102A700000F04AF928BBA368013BA36023685A1CF5
:102A800022601E7063690130984204D0A389DB077D
:102A900019D50A2E17D12146284600F035F990B1F4
:102AA0000FE00B4B9C4201D1AC68D0E7094B9C4234
:102AB00008BFEC68CBE72146284600F01FF8002845
:102AC000CCD04FF0FF373846F8BD00BF3C3000088F
:102AD0005C3000081C30000838B5074C0546084635
:102AE0001146002222601A46FFF7D6FA431C02D193
:102AF000236803B12B6038BD14010020324B70B540
:102B00001D6806460C4625B1AB6913B92846FFF788
:102B100077FB2E4B9C420FD16C68B4F90C309AB203
:102B200015072CD4D00611D40922326043F040039B
:102B3000A3814FF0FF3070BD254B9C4201D1AC68A2
:102B4000EBE7244B9C4208BFEC68E6E7510712D53F
:102B5000616B41B104F14403994202D0304600F068
:102B600075F900236363A38923F02403A381002361
:102B7000636023692360A38943F00803A381236969
:102B80004BB9A38903F42073B3F5007F03D021462A
:102B9000304600F019F9A28912F001030CD000238D
:102BA000A36063695B42A361236953B9B4F90C3034
:102BB00013F08000BAD170BD920758BF6369A3605B
:102BC000F2E70020F7E700BF0C0000203C300008CF
:102BD0005C3000081C30000838B5064C0023054660
:102BE0000846236000F0B4F9431C02D1236803B106
:102BF0002B6038BD140100208A892DE9F04105467B
:102C000010070C465AD44B68002B05DC0B6C002BCC
:102C100002DC0020BDE8F081E66A002EF9D0002336
:102C200012F480522F682B6033D0606DA3895A074D
:102C300005D56368C01A636B0BB1236CC01A0023FF
:102C40000246E66A216A2846B047431CA38906D19A
:102C500029681D294BD82B4ACA40D60747D50022E0
:102C60006260D9042269226004D5421C01D12B681C
:102C700003B96065616B2F600029CAD004F1440379
:102C8000994202D0284600F0E1F800206063BDE8D8
:102C9000F081216A01232846B047411CC6D12B6828
:102CA000002BC3D01D2B01D0162B01D12F60B0E714
:102CB000A38943F04003A381BDE8F0810F69002F91
:102CC000A7D093070E6808BF4B690F6018BF002399
:102CD000A6EB07088B60B8F1000F9ADD43463A4631
:102CE000216AA66A2846B047002807DCA38943F07A
:102CF0004003A3814FF0FF30BDE8F0810744A8EB0B
:102D00000008E8E70100402038B50B6905460C468D
:102D1000DBB118B183690BB9FFF772FA0C4B9C4217
:102D200009D16C68B4F90C307BB121462846BDE866
:102D30003840FFF761BF074B9C4201D1AC68F1E717
:102D4000054B9C4208BFEC68ECE7002038BD00BF93
:102D50003C3000085C3000081C30000838B5074CD7
:102D6000054608461146002222601A4600F008F97E
:102D7000431C02D1236803B12B6038BD140100202D
:102D800070B50E46B1F90E10002990B014461D46DC
:102D900007DA00232B60B3891A0610D44FF480633E
:102DA0000EE001AA00F0B2F80028F2DB029A02F469
:102DB0007042A2F500535A425A412A60EEE740237E
:102DC0000020236010B070BD8B8973B59D07064647
:102DD0000C4607D504F14703236023610123636197
:102DE00002B070BD01AB6A46FFF7CAFF0099054605
:102DF0003046FFF797FA48B9B4F90C309A05EFD48A
:102E000023F0030343F00203A381E3E70D4BB36216
:102E1000A389206043F08003A381009B6361019B31
:102E200020615BB1B4F90E10304600F081F828B192
:102E3000A38923F0030343F00103A381A3891D4366
:102E4000A581CDE7812100087047704738B5054658
:102E5000002945D051F8043C0C1F002BB8BFE418E2
:102E6000FFF7F2FF1F4A1368104633B9636014601E
:102E70002846BDE83840FFF7E8BFA3420CD92168D7
:102E80006218934204BF1A685B68636004BF5218FB
:102E900022600460ECE713465A680AB1A242FAD9EC
:102EA00019685818A0420BD1206801445818824272
:102EB0001960DDD1106852685A6001441960D7E783
:102EC00002D90C232B60D3E7206821188A4204BF63
:102ED00011685268626004BF091821605C60C7E72E
:102EE00038BD00BF9000002038B5074C05460846A5
:102EF0001146002222601A4600F04AF8431C02D113
:102F0000236803B12B6038BD1401002038B5074C8D
:102F10000023054608461146236000F021F8431CB3
:102F200002D1236803B12B6038BD00BF140100201B
:102F300038B5064C002305460846236000F018F813
:102F4000431C02D1236803B12B6038BD140100205B
:102F5000024B58221A604FF0FF30704714010020D6
:102F6000024B58221A604FF0FF30704714010020C6
:102F7000024B58221A600020704700BF1401002045
:102F8000024B58221A604FF0FF30704714010020A6
:102F9000024B58221A604FF0FF3070471401002096
:102FA000044B1968024609B90349196018680244BC
:102FB0001A6070479800002018010020F8B500BF83
:102FC000F8BC08BC9E467047F8B500BFF8BC08BC0A
:042FD0009E46704762
:102FD4000104020800101010041010100210101048
:102FE4000848656C6C6F2C202533640D0A000000C2
:102FF40000000000000001020304060708090000A5
:103004000000010203042E2E2F5372632F75736187
:1030140072742E6300000000000000000000000035
:10302400000000000000000000000000000000009C
:10303400000000000000000000000000000000008C
:10304400000000000000000000000000000000007C
:10305400000000000000000000000000000000006C
:10306400000000000000000000000000000000005C
:10307400000000000000000010000020232D302B71
:103084002000686C4C006566674546470030313265
:1030940033343536373839414243444546003031BC
:1030A400323334353637383961626364656600001B
:0830B4005CD2FF7F0100000067
:0430BC0025020008E1
:0430C0000102000801
:1030C40001000000100000000024F40010000020A3
:1030D400000000003C3000085C3000081C30000890
:1030E40000000000000000000000000000000000DC
:1030F40000000000000000000000000000000000CC
:1031040000000000000000000000000000000000BB
:1031140000000000000000000000000000000000AB
:10312400000000000000000000000000000000009B
:04000005080020B51A
:00000001FF
